{
  "_format": "hh-sol-artifact-1",
  "contractName": "SimpleStorage",
  "sourceName": "contracts/SimpleStorage.sol",
  "abi": [
    {
      "inputs": [
        {
          "internalType": "string",
          "name": "_name",
          "type": "string"
        },
        {
          "internalType": "uint256",
          "name": "_selectNum",
          "type": "uint256"
        }
      ],
      "name": "addPerson",
      "outputs": [],
      "stateMutability": "nonpayable",
      "type": "function"
    },
    {
      "inputs": [
        {
          "internalType": "uint256",
          "name": "",
          "type": "uint256"
        }
      ],
      "name": "listofPeople",
      "outputs": [
        {
          "internalType": "uint256",
          "name": "selectNum",
          "type": "uint256"
        },
        {
          "internalType": "string",
          "name": "name",
          "type": "string"
        }
      ],
      "stateMutability": "view",
      "type": "function"
    },
    {
      "inputs": [
        {
          "internalType": "string",
          "name": "",
          "type": "string"
        }
      ],
      "name": "nameToSelectedNum",
      "outputs": [
        {
          "internalType": "uint256",
          "name": "",
          "type": "uint256"
        }
      ],
      "stateMutability": "view",
      "type": "function"
    },
    {
      "inputs": [],
      "name": "retrieve",
      "outputs": [
        {
          "internalType": "uint256",
          "name": "",
          "type": "uint256"
        }
      ],
      "stateMutability": "view",
      "type": "function"
    },
    {
      "inputs": [
        {
          "internalType": "uint256",
          "name": "_favorNum",
          "type": "uint256"
        }
      ],
      "name": "store",
      "outputs": [],
      "stateMutability": "nonpayable",
      "type": "function"
    }
  ],
  "bytecode": "0x608060405234801561001057600080fd5b5061093b806100206000396000f3fe608060405234801561001057600080fd5b50600436106100575760003560e01c80632e5effac1461005c5780632e64cec11461008d57806345f94d8b146100ab5780636057361d146100db5780636f760f41146100f7575b600080fd5b610076600480360381019061007191906102e3565b610113565b6040516100849291906103af565b60405180910390f35b6100956101cf565b6040516100a291906103df565b60405180910390f35b6100c560048036038101906100c0919061052f565b6101d8565b6040516100d291906103df565b60405180910390f35b6100f560048036038101906100f091906102e3565b610206565b005b610111600480360381019061010c9190610578565b610210565b005b6002818154811061012357600080fd5b906000526020600020906002020160009150905080600001549080600101805461014c90610603565b80601f016020809104026020016040519081016040528092919081815260200182805461017890610603565b80156101c55780601f1061019a576101008083540402835291602001916101c5565b820191906000526020600020905b8154815290600101906020018083116101a857829003601f168201915b5050505050905082565b60008054905090565b6003818051602081018201805184825260208301602085012081835280955050505050506000915090505481565b8060008190555050565b6002604051806040016040528083815260200184815250908060018154018082558091505060019003906000526020600020906002020160009091909190915060008201518160000155602082015181600101908161026f91906107e0565b5050508060038360405161028391906108ee565b9081526020016040518091039020819055505050565b6000604051905090565b600080fd5b600080fd5b6000819050919050565b6102c0816102ad565b81146102cb57600080fd5b50565b6000813590506102dd816102b7565b92915050565b6000602082840312156102f9576102f86102a3565b5b6000610307848285016102ce565b91505092915050565b610319816102ad565b82525050565b600081519050919050565b600082825260208201905092915050565b60005b8381101561035957808201518184015260208101905061033e565b60008484015250505050565b6000601f19601f8301169050919050565b60006103818261031f565b61038b818561032a565b935061039b81856020860161033b565b6103a481610365565b840191505092915050565b60006040820190506103c46000830185610310565b81810360208301526103d68184610376565b90509392505050565b60006020820190506103f46000830184610310565b92915050565b600080fd5b600080fd5b7f4e487b7100000000000000000000000000000000000000000000000000000000600052604160045260246000fd5b61043c82610365565b810181811067ffffffffffffffff8211171561045b5761045a610404565b5b80604052505050565b600061046e610299565b905061047a8282610433565b919050565b600067ffffffffffffffff82111561049a57610499610404565b5b6104a382610365565b9050602081019050919050565b82818337600083830152505050565b60006104d26104cd8461047f565b610464565b9050828152602081018484840111156104ee576104ed6103ff565b5b6104f98482856104b0565b509392505050565b600082601f830112610516576105156103fa565b5b81356105268482602086016104bf565b91505092915050565b600060208284031215610545576105446102a3565b5b600082013567ffffffffffffffff811115610563576105626102a8565b5b61056f84828501610501565b91505092915050565b6000806040838503121561058f5761058e6102a3565b5b600083013567ffffffffffffffff8111156105ad576105ac6102a8565b5b6105b985828601610501565b92505060206105ca858286016102ce565b9150509250929050565b7f4e487b7100000000000000000000000000000000000000000000000000000000600052602260045260246000fd5b6000600282049050600182168061061b57607f821691505b60208210810361062e5761062d6105d4565b5b50919050565b60008190508160005260206000209050919050565b60006020601f8301049050919050565b600082821b905092915050565b6000600883026106967fffffffffffffffffffffffffffffffffffffffffffffffffffffffffffffffff82610659565b6106a08683610659565b95508019841693508086168417925050509392505050565b6000819050919050565b60006106dd6106d86106d3846102ad565b6106b8565b6102ad565b9050919050565b6000819050919050565b6106f7836106c2565b61070b610703826106e4565b848454610666565b825550505050565b600090565b610720610713565b61072b8184846106ee565b505050565b5b8181101561074f57610744600082610718565b600181019050610731565b5050565b601f8211156107945761076581610634565b61076e84610649565b8101602085101561077d578190505b61079161078985610649565b830182610730565b50505b505050565b600082821c905092915050565b60006107b760001984600802610799565b1980831691505092915050565b60006107d083836107a6565b9150826002028217905092915050565b6107e98261031f565b67ffffffffffffffff81111561080257610801610404565b5b61080c8254610603565b610817828285610753565b600060209050601f83116001811461084a5760008415610838578287015190505b61084285826107c4565b8655506108aa565b601f19841661085886610634565b60005b828110156108805784890151825560018201915060208501945060208101905061085b565b8683101561089d5784890151610899601f8916826107a6565b8355505b6001600288020188555050505b505050505050565b600081905092915050565b60006108c88261031f565b6108d281856108b2565b93506108e281856020860161033b565b80840191505092915050565b60006108fa82846108bd565b91508190509291505056fea26469706673582212202e15bb0d3e31a943f717150488f800cf451539831f22aa2beb33129185b71ce864736f6c63430008180033",
  "linkReferences": {},
  "deployedLinkReferences": {}
}